{
  "_format": "hh-sol-artifact-1",
  "contractName": "WavePortal",
  "sourceName": "contracts/WavePortal.sol",
  "abi": [
    {
      "inputs": [],
      "stateMutability": "payable",
      "type": "constructor"
    },
    {
      "anonymous": false,
      "inputs": [
        {
          "indexed": true,
          "internalType": "address",
          "name": "from",
          "type": "address"
        },
        {
          "indexed": false,
          "internalType": "uint256",
          "name": "timestamp",
          "type": "uint256"
        },
        {
          "indexed": false,
          "internalType": "string",
          "name": "messaged",
          "type": "string"
        }
      ],
      "name": "NewWave",
      "type": "event"
    },
    {
      "inputs": [],
      "name": "getAllWaves",
      "outputs": [
        {
          "components": [
            {
              "internalType": "address",
              "name": "waver",
              "type": "address"
            },
            {
              "internalType": "string",
              "name": "message",
              "type": "string"
            },
            {
              "internalType": "uint256",
              "name": "timestamp",
              "type": "uint256"
            }
          ],
          "internalType": "struct WavePortal.Wave[]",
          "name": "",
          "type": "tuple[]"
        }
      ],
      "stateMutability": "view",
      "type": "function"
    },
    {
      "inputs": [],
      "name": "getTotalWaves",
      "outputs": [
        {
          "internalType": "uint256",
          "name": "",
          "type": "uint256"
        }
      ],
      "stateMutability": "view",
      "type": "function"
    },
    {
      "inputs": [
        {
          "internalType": "string",
          "name": "_message",
          "type": "string"
        }
      ],
      "name": "wave",
      "outputs": [],
      "stateMutability": "nonpayable",
      "type": "function"
    }
  ],
  "bytecode": "0x60806040526200004f6040518060400160405280601681526020017f676720676f206e6578742049276d20736d6172746572000000000000000000008152506200005560201b620005031760201c565b620001e9565b620000f5816040516024016200006c919062000162565b6040516020818303038152906040527f41304fac000000000000000000000000000000000000000000000000000000007bffffffffffffffffffffffffffffffffffffffffffffffffffffffff19166020820180517bffffffffffffffffffffffffffffffffffffffffffffffffffffffff8381831617835250505050620000f860201b60201c565b50565b60008151905060006a636f6e736f6c652e6c6f679050602083016000808483855afa5050505050565b60006200012e8262000186565b6200013a818562000191565b93506200014c818560208601620001a2565b6200015781620001d8565b840191505092915050565b600060208201905081810360008301526200017e818462000121565b905092915050565b600081519050919050565b600082825260208201905092915050565b60005b83811015620001c2578082015181840152602081019050620001a5565b83811115620001d2576000848401525b50505050565b6000601f19601f8301169050919050565b610ef080620001f96000396000f3fe608060405234801561001057600080fd5b50600436106100415760003560e01c8063449d46c0146100465780639a2cdc0814610062578063bd43a90814610080575b600080fd5b610060600480360381019061005b9190610808565b61009e565b005b61006a610367565b6040516100779190610b32565b60405180910390f35b6100886103b2565b6040516100959190610a4e565b60405180910390f35b60016000808282546100b09190610c44565b9250508190555060018060003373ffffffffffffffffffffffffffffffffffffffff1673ffffffffffffffffffffffffffffffffffffffff16815260200190815260200160002060008282546101069190610c44565b9250508190555061014c6040518060400160405280600c81526020017f25732068617320776176656400000000000000000000000000000000000000008152503361059c565b600360405180606001604052803373ffffffffffffffffffffffffffffffffffffffff16815260200183815260200142815250908060018154018082558091505060019003906000526020600020906003020160009091909190915060008201518160000160006101000a81548173ffffffffffffffffffffffffffffffffffffffff021916908373ffffffffffffffffffffffffffffffffffffffff160217905550602082015181600101908051906020019061020b9291906106fd565b506040820151816002015550503373ffffffffffffffffffffffffffffffffffffffff167f5f7e16dc676677766a70e9c5628aa6c54ddb8b6e5188e2ae1e1f17f1ffbea7164283604051610260929190610b4d565b60405180910390a26000655af3107a40009050478111156102b6576040517f08c379a00000000000000000000000000000000000000000000000000000000081526004016102ad90610b12565b60405180910390fd5b60003373ffffffffffffffffffffffffffffffffffffffff16826040516102dc90610a39565b60006040518083038185875af1925050503d8060008114610319576040519150601f19603f3d011682016040523d82523d6000602084013e61031e565b606091505b5050905080610362576040517f08c379a000000000000000000000000000000000000000000000000000000000815260040161035990610af2565b60405180910390fd5b505050565b60006103aa6040518060400160405280601681526020017f776520686176652077617665642025732074696d657300000000000000000000815250600054610638565b600054905090565b60606003805480602002602001604051908101604052809291908181526020016000905b828210156104fa57838290600052602060002090600302016040518060600160405290816000820160009054906101000a900473ffffffffffffffffffffffffffffffffffffffff1673ffffffffffffffffffffffffffffffffffffffff1673ffffffffffffffffffffffffffffffffffffffff16815260200160018201805461045f90610d18565b80601f016020809104026020016040519081016040528092919081815260200182805461048b90610d18565b80156104d85780601f106104ad576101008083540402835291602001916104d8565b820191906000526020600020905b8154815290600101906020018083116104bb57829003601f168201915b50505050508152602001600282015481525050815260200190600101906103d6565b50505050905090565b610599816040516024016105179190610a70565b6040516020818303038152906040527f41304fac000000000000000000000000000000000000000000000000000000007bffffffffffffffffffffffffffffffffffffffffffffffffffffffff19166020820180517bffffffffffffffffffffffffffffffffffffffffffffffffffffffff83818316178352505050506106d4565b50565b61063482826040516024016105b2929190610a92565b6040516020818303038152906040527f319af333000000000000000000000000000000000000000000000000000000007bffffffffffffffffffffffffffffffffffffffffffffffffffffffff19166020820180517bffffffffffffffffffffffffffffffffffffffffffffffffffffffff83818316178352505050506106d4565b5050565b6106d0828260405160240161064e929190610ac2565b6040516020818303038152906040527f9710a9d0000000000000000000000000000000000000000000000000000000007bffffffffffffffffffffffffffffffffffffffffffffffffffffffff19166020820180517bffffffffffffffffffffffffffffffffffffffffffffffffffffffff83818316178352505050506106d4565b5050565b60008151905060006a636f6e736f6c652e6c6f679050602083016000808483855afa5050505050565b82805461070990610d18565b90600052602060002090601f01602090048101928261072b5760008555610772565b82601f1061074457805160ff1916838001178555610772565b82800160010185558215610772579182015b82811115610771578251825591602001919060010190610756565b5b50905061077f9190610783565b5090565b5b8082111561079c576000816000905550600101610784565b5090565b60006107b36107ae84610ba2565b610b7d565b9050828152602081018484840111156107cb57600080fd5b6107d6848285610cd6565b509392505050565b600082601f8301126107ef57600080fd5b81356107ff8482602086016107a0565b91505092915050565b60006020828403121561081a57600080fd5b600082013567ffffffffffffffff81111561083457600080fd5b610840848285016107de565b91505092915050565b600061085583836109cb565b905092915050565b61086681610c9a565b82525050565b61087581610c9a565b82525050565b600061088682610be3565b6108908185610c06565b9350836020820285016108a285610bd3565b8060005b858110156108de57848403895281516108bf8582610849565b94506108ca83610bf9565b925060208a019950506001810190506108a6565b50829750879550505050505092915050565b60006108fb82610bee565b6109058185610c22565b9350610915818560208601610ce5565b61091e81610e08565b840191505092915050565b600061093482610bee565b61093e8185610c33565b935061094e818560208601610ce5565b61095781610e08565b840191505092915050565b600061096f602283610c33565b915061097a82610e19565b604082019050919050565b6000610992603383610c33565b915061099d82610e68565b604082019050919050565b60006109b5600083610c17565b91506109c082610eb7565b600082019050919050565b60006060830160008301516109e3600086018261085d565b50602083015184820360208601526109fb82826108f0565b9150506040830151610a106040860182610a1b565b508091505092915050565b610a2481610ccc565b82525050565b610a3381610ccc565b82525050565b6000610a44826109a8565b9150819050919050565b60006020820190508181036000830152610a68818461087b565b905092915050565b60006020820190508181036000830152610a8a8184610929565b905092915050565b60006040820190508181036000830152610aac8185610929565b9050610abb602083018461086c565b9392505050565b60006040820190508181036000830152610adc8185610929565b9050610aeb6020830184610a2a565b9392505050565b60006020820190508181036000830152610b0b81610962565b9050919050565b60006020820190508181036000830152610b2b81610985565b9050919050565b6000602082019050610b476000830184610a2a565b92915050565b6000604082019050610b626000830185610a2a565b8181036020830152610b748184610929565b90509392505050565b6000610b87610b98565b9050610b938282610d4a565b919050565b6000604051905090565b600067ffffffffffffffff821115610bbd57610bbc610dd9565b5b610bc682610e08565b9050602081019050919050565b6000819050602082019050919050565b600081519050919050565b600081519050919050565b6000602082019050919050565b600082825260208201905092915050565b600081905092915050565b600082825260208201905092915050565b600082825260208201905092915050565b6000610c4f82610ccc565b9150610c5a83610ccc565b9250827fffffffffffffffffffffffffffffffffffffffffffffffffffffffffffffffff03821115610c8f57610c8e610d7b565b5b828201905092915050565b6000610ca582610cac565b9050919050565b600073ffffffffffffffffffffffffffffffffffffffff82169050919050565b6000819050919050565b82818337600083830152505050565b60005b83811015610d03578082015181840152602081019050610ce8565b83811115610d12576000848401525b50505050565b60006002820490506001821680610d3057607f821691505b60208210811415610d4457610d43610daa565b5b50919050565b610d5382610e08565b810181811067ffffffffffffffff82111715610d7257610d71610dd9565b5b80604052505050565b7f4e487b7100000000000000000000000000000000000000000000000000000000600052601160045260246000fd5b7f4e487b7100000000000000000000000000000000000000000000000000000000600052602260045260246000fd5b7f4e487b7100000000000000000000000000000000000000000000000000000000600052604160045260246000fd5b6000601f19601f8301169050919050565b7f4661696c656420746f2073656e6420657468657220746f207468652077696e6e60008201527f6572000000000000000000000000000000000000000000000000000000000000602082015250565b7f547279696e6720746f207769746864726177206d6f7265206d6f6e657920746860008201527f656e2074686520636f6e74726163742068617300000000000000000000000000602082015250565b5056fea2646970667358221220a2e47aba54c91369e5010f4f88082f0ebede64f2d2ba3a2b43a08f75c889f7dd64736f6c63430008040033",
  "linkReferences": {},
  "deployedLinkReferences": {}
}